:100000000C943E000C945B000C945B000C945B0021
:100010000C945B000C945B000C945B000C945B00F4
:100020000C945B000C945B000C945B000C945B00E4
:100030000C945B000C94B0060C945B000C945B0079
:100040000C94FD030C945B000C945B000C945B001F
:100050000C94A6070C94E4070C945B000C945B00D2
:100060000C945B000C945B000C945B000C945B00A4
:100070000C942C080C946A080C945B0011241FBE8D
:10008000CFEFD8E0DEBFCDBF11E0A0E0B1E0E6E009
:10009000F4E202C005900D92AE32B107D9F727E025
:1000A000AEE2B1E001C01D92A631B207E1F70E94B5
:1000B000AF030C9401120C940000CF93DF931F92B6
:1000C000CDB7DEB762E070E080E090E00E94DC0E29
:1000D00020E048EE53E0BE016F5F7F4F80915F01EB
:1000E000909160010E94DB0A882331F061E0CE012B
:1000F00001960E942604ECCF62E08EE091E00E941F
:100100002604E6CF61E070E080E090E00E94DC0E23
:1001100088248394912C03E010E06894AA24A2F828
:10012000B12C9092400180923F0190923E018092CA
:100130003D0110923C0110923B0110933601009357
:100140003501B0923401A092330190923201809235
:1001500031019092300180922F0120E044EF51E074
:1001600060E070E080915D0190915E010E94DB0A89
:10017000882309F4D7C086B1837C90E020910601E2
:100180003091070182179307C1F420913F0130910C
:1001900040012130310509F4D1C02150310930939B
:1001A000400120933F0120913D0130913E012150BB
:1001B000310930933E0120933D0120910801309197
:1001C000090182179307B1F420913F01309140015A
:1001D0002630310579F02F5F3F4F30934001209357
:1001E0003F0180913D0190913E01019690933E0127
:1001F00080933D014091330150913401A0912F0132
:10020000B09130019A012A0F3B1F60913501709126
:100210003601E0903101F0903201FB01EE0DFF1D3F
:100220006901CC0CDD1CC601880F991F880F991F2E
:10023000880F991F8C199D098E0F9F1F880F991F7A
:1002400086509A4FEC01888199818130910541F463
:10025000B195A195B109B0933001A0932F0143C08E
:10026000EE0FFF1F6F01CC0CDD1CCC0CDD1CCC0C89
:10027000DD1CE601CE1BDF0BFE01E20FF31FEE0FCC
:10028000FF1FE650FA4F2081318122303105D9F429
:10029000EA94EF2851F48091390190913A01019646
:1002A00090933A018093390109C080913701909170
:1002B00038010196909338018093370190923C0168
:1002C00080923B0110C0039771F4B195A195B109DB
:1002D000B0933001A0932F01F194E194F108F092D2
:1002E0003201E09231018091310190913201680F29
:1002F000791F709336016093350180912F019091A1
:100300003001480F591F509334014093330120E0CE
:1003100040E050E060E070E080915D0190915E010E
:100320000E94E60984E690E00E94890E80913B01DC
:1003300090913C01892B09F410CFF3CE4091080134
:10034000509109018417950709F054CF44CF5A9A68
:1003500008955D9A5D985C9A5C985A980895809586
:1003600082B985B1836085B985B1937090958923F1
:1003700085B90895CF93C0912E01C1110EC00E947E
:10038000A70180914101909142010E94AF010E941A
:10039000A90181E080932E0114C0EC2FF0E0EE0F54
:1003A000FF1FEF5BFE4F808191810E94AF010E9491
:1003B000A901CF5FCE3018F4C0932E0102C0109275
:1003C0002E01CF910895CF93DF934AEF55E020E0BF
:1003D00030E0C2E0D0E061E070E01FC0DF011182D8
:1003E0001082009719F08D30910519F41196DC9365
:1003F000CE932115310519F02930310511F46D9393
:100400007C93019632968E30910541F72F5F3F4FD6
:10041000445E5F4F2A30310521F0FA0180E090E020
:10042000DDCFDF91CF91089561E070E080E090E052
:100430000E94DC0E40E061E08EE10E94B5099093DD
:10044000600180935F010E94E60381E00E94870AB9
:1004500090935E0180935D010E94E301E12CF12CF9
:1004600001E020E030E045E550E061E171E08DE53C
:1004700090E00E940A0C03E020E030E045E550E007
:100480006CE171E082E890E00E940A0C02E020E05A
:1004900030E045E550E06CE171E08FE893E00E94C8
:1004A0000A0C88EE93E00E94890EFBCF0F931F93F6
:1004B000CF93DF936115710529F19B01772314F424
:1004C0002F5F3F4FEB018C01B901759567950E9435
:1004D00056029C01C0FD07C0229FC001239F900DC2
:1004E000900D112411C0029FA001039F500D129F77
:1004F000500D1124429FC001439F900D529F900DBB
:10050000112402C081E090E0DF91CF911F910F9103
:1005100008952F923F924F925F926F927F928F92A7
:100520009F92AF92BF92CF92DF92EF92FF920F9382
:100530001F93CF93DF93CDB7DEB760970FB6F894D4
:10054000DEBF0FBECDBF80913D0190913E019E83E5
:100550008D8301969C878B87ED81FE813296FE8785
:10056000ED8780913F01909140019C838B830196A0
:1005700098878F83EB81FC813296FA87E987809098
:1005800035019090360160903301709034010F2E48
:10059000F1E42F2EF1E03F2EF02D0F2EFAEF4F2E2B
:1005A000F5E05F2EF02D00E010E0F2E0F9831A8212
:1005B00074C0EF84F888F70180819181019761F11F
:1005C0000115110589F48B819C818C159D0521F104
:1005D000EF81F885EC15FD05F9F089859A858C1574
:1005E0009D0509F07BC018C00D30110509F072C0DF
:1005F000ED81FE81EC15FD0579F08B859C858C15D0
:100600009D0551F0ED85FE85EC15FD0509F06AC0EC
:1006100003C06C147D0439F4B60189819A810E946B
:100620005602A80EB91E01151105F1F10D30110584
:10063000D9F445C08F8198858C159D0581F0E98599
:10064000FA85EC15FD0581F40AC08B859C858C1517
:100650009D0529F0ED85FE85EC15FD0529F483E067
:1006600090E0F701918380839FEFC91AD90AEF8543
:10067000F8897C96F88BEF87FAE0CF16D10409F061
:1006800098CFF101A192B1921F010F5F1F4FF2E0CD
:100690004F0E511C0E30110549F1588A4F86C12C5E
:1006A000D12CA12CB12C85CF82E0F701808311825F
:1006B000EB81FC81EC15FD0509F0BCCFD0CF82E0C9
:1006C000F70180831182ED81FE81EC15FD0509F0B3
:1006D000BCCFC5CF8016910639F69BCF8016910608
:1006E00019F797CF8016910651F793CF60960FB602
:1006F000F894DEBF0FBECDBFDF91CF911F910F9158
:10070000FF90EF90DF90CF90BF90AF909F908F9031
:100710007F906F905F904F903F902F90089520E0D2
:1007200042E058E060E070E080915D0190915E01F0
:100730000E94DB0A882399F30E94890284E690E0F4
:100740000E94890E20E040E050E060E070E080917F
:100750005D0190915E010E94E609E1CF08950E943B
:100760002F045E98E12CF12C00E020E030E045E51C
:1007700050E061E271E084E192E00E940A0C8AEBB1
:1007800091E00E94EB0378940E941F0DFFCFCF935E
:10079000DF9300D0CDB7DEB76A838091A901909135
:1007A000AA01009771F0198220E0AE014F5F5F4F00
:1007B000BE016E5F7F4F0E94A10A898181110E9454
:1007C000FB050F900F90DF91CF9108959093AA01B0
:1007D0008093A90108959093A8018093A7018AE0CE
:1007E00087BD84B5826084BDEEE6F0E080818260E2
:1007F000808385B5856085BD08951F920F920FB6E1
:100800000F9211242F933F934F935F936F937F9396
:100810008F939F93AF93BF93EF93FF93E091A701C3
:10082000F091A801309709F00995FF91EF91BF91E0
:10083000AF919F918F917F916F915F914F913F9178
:100840002F910F900FBE0F901F901895462FBC014F
:100850008091AB019091AC010E94630708958F9243
:100860009F92AF92BF92CF92DF92EF920F9384E864
:1008700091E00E94880481E691E00E9488040F2E96
:10088000F7EC8F2EF3E09F2EF02D0F2EF1E6AF2E1A
:10089000F1E0BF2EF02D0F2EF4E8CF2EF1E0DF2E89
:1008A000F02DE12C00E023E040E052EC61E070E04C
:1008B00080E00E94E9069093AC018093AB0188B17F
:1008C000836C88B95B9A8AB184678AB95E9A81B170
:1008D0008FEF81B984B1836084B984B18C6384B9AA
:1008E0000F91EF90DF90CF90BF90AF909F908F903F
:1008F000089595B1937C95B925B134E0839FC001EB
:100900001124822B85B9089585B1837C85B908951A
:10091000FC0110A211A212A20895FC0182A1882359
:10092000D9F081A1DF01A80FB11D8C91DB018C935F
:1009300021A130E02F5F3F4F2F713078332334F403
:1009400021503109206E3F6F2F5F3F4F21A382A1BD
:10095000815082A380E0089581E00895FC0142A1C6
:100960004032B8F420A130E0E20FF31F60832F5F24
:100970003F4F2F713078332334F421503109206EEA
:100980003F6F2F5F3F4FFC0120A34F5F42A380E0EA
:10099000089582E00895FC010396928381832FEFEE
:1009A0003FEF3483238396838583908787831082E8
:1009B0000895FC01118610860895CF93DF939C0162
:1009C000FB01DC011196CD91DC911297D383C28398
:1009D0008C819D81958384838C819D81DC0113961C
:1009E0007C936E9312977D836C8331872087F90106
:1009F00080818F5F8083DF91CF910895CF93DF93C4
:100A0000EB01488159814F3F2FEF520721F4FC0140
:100A1000A781B0850DC0DC01139601C0DF011296DD
:100A2000ED91FC9113972081318142175307B0F764
:100A30001296ED91FC911397FB83EA83D583C483CF
:100A4000BD83AC831396DC93CE93129799878887E6
:100A5000FC0120812F5F2083DF91CF910895CF93F8
:100A6000DF93FC01A085B185C281D381848195810A
:100A70009D838C83C481D581828193819B838A836A
:100A800011968D919C911297E817F90731F48481A2
:100A9000958112969C938E931197118610868C9156
:100AA00081508C93DF91CF91089531E1FC01308327
:100AB000319722E220833197A3E3A08331976083AB
:100AC0003197708331971082319760E86083319756
:100AD0001082319762E06083319763E060833197E1
:100AE00064E06083319765E06083319766E06083FE
:100AF000319767E06083319768E06083319769E000
:100B00006083319760E1608331973083319732E1C0
:100B10003083319733E13083319734E1308331973B
:100B200035E13083319736E13083319737E13083D7
:100B3000319738E13083319739E13083319730E2B2
:100B40003083319731E2308331972083319723E22C
:100B500020833197408331975083319726E2208359
:100B6000319727E22083319728E22083319729E2C9
:100B70002083319720E32083319721E320838697D8
:100B800008951092890085EE809388008BE0809311
:100B90008100EFE6F0E0808182608083A091F8051B
:100BA000B091F905CD91CDBFDD91DEBFFF91EF9101
:100BB000DF91CF91BF91AF919F918F917F916F9175
:100BC0005F914F913F912F911F910F91FF90EF9067
:100BD000DF90CF90BF90AF909F908F907F906F905D
:100BE0005F904F903F902F901F900F900FBE0F90EF
:100BF000089581E008950F920FB6F8940F921F9216
:100C000011242F923F924F925F926F927F928F9218
:100C10009F92AF92BF92CF92DF92EF92FF920F938B
:100C20001F932F933F934F935F936F937F938F9374
:100C30009F93AF93BF93CF93DF93EF93FF93A091D5
:100C4000F805B091F9050DB60D920EB60D920E9401
:100C5000EB0EA091F805B091F905CD91CDBFDD91D6
:100C6000DEBFFF91EF91DF91CF91BF91AF919F9147
:100C70008F917F916F915F914F913F912F911F9134
:100C80000F91FF90EF90DF90CF90BF90AF909F902B
:100C90008F907F906F905F904F903F902F901F901C
:100CA0000F900FBE0F9008950F920FB6F8940F9209
:100CB0001F9211242F923F924F925F926F927F92D8
:100CC0008F929F92AF92BF92CF92DF92EF92FF925C
:100CD0000F931F932F933F934F935F936F937F9344
:100CE0008F939F93AF93BF93CF93DF93EF93FF9334
:100CF000A091F805B091F9050DB60D920EB60D92C2
:100D00000E944F0D81110E94EB0EA091F805B09149
:100D1000F905CD91CDBFDD91DEBFFF91EF91DF9160
:100D2000CF91BF91AF919F918F917F916F915F9183
:100D30004F913F912F911F910F91FF90EF90DF9076
:100D4000CF90BF90AF909F908F907F906F905F906B
:100D50004F903F902F901F900F900FBE0F900895CF
:100D60000E9454061895CF93DF93EC010E94490D21
:100D70008091AD019091AE01892B31F482EB91E02D
:100D80009093AE018093AD012091AF013091B001FD
:100D9000C9018C0F9D1F873E43E0940770F428170C
:100DA000390770F4C091AD01D091AE01C20FD31FCD
:100DB0009093B0018093AF0105C0C0E0D0E002C0C5
:100DC000C0E0D0E00E940A0ECE01DF91CF910895DD
:100DD00008954F925F926F927F928F929F92AF92FF
:100DE000BF92CF92DF92FF920F931F93CF93DF9327
:100DF000CDB7DEB7F82E2A013B0188E090E00E94D3
:100E0000D0108C018F2D90E0880F991FFC01E756C0
:100E1000FA4F11830083FC01E65FFE4F80819181D0
:100E2000D80111969C938E931396BC92AE92129712
:100E30001596DC92CE92149717969C928E921697E6
:100E4000FFB6F894ED91FC911197369780818260FE
:100E50008083CD90DC90D301C201880F991FAA1F17
:100E6000BB1F880F991FAA1FBB1F9C01AD01220F3A
:100E7000331F441F551F60E070E081EE90E00E9438
:100E8000AE102150F60132972083D801ED91FC91EC
:100E90001197359788E98083ED91FC91349786E02E
:100EA0008083FFBEC801DF91CF911F910F91FF900A
:100EB000DF90CF90BF90AF909F908F907F906F907A
:100EC0005F904F900895EF92FF920F931F93CF93EF
:100ED000DF93FC01A281B381109779F0E42FF0E059
:100EE00092965C9120E230E0251B31092E173F07D6
:100EF0001CF17C01411104C016C04230F8F4F9CF56
:100F0000EB014150042F10E00F5F1F4F060F171F1A
:100F10006991D70112968D919C9113970E94AE040E
:100F2000C017D107A9F7D701ED91FC9135978081C2
:100F30008062808380E003C082E001C082E0DF91B4
:100F4000CF911F910F91FF90EF9008951F920F92F4
:100F50000FB60F9211242F933F934F935F936F938C
:100F60007F938F939F93AF93BF93CF93EF93FF9311
:100F7000E0919905F0919A053097A1F0C091C600D3
:100F80006C2F848195810E94AE0480919905909187
:100F90009A05DC011696ED91FC911797309711F0A8
:100FA0006C2F0995FF91EF91CF91BF91AF919F91D8
:100FB0008F917F916F915F914F913F912F910F9002
:100FC0000FBE0F901F9018951F920F920FB60F92A1
:100FD00011242F933F934F935F936F937F938F933E
:100FE0009F93AF93BF93EF93FF93CF93DF931F92A2
:100FF000CDB7DEB7E0919905F0919A05309799F059
:10100000BE016F5F7F4F828193810E948D048111A9
:1010100004C089818093C6000BC0E1ECF0E08081C0
:101020008F7D808305C0E1ECF0E080818F7D80833F
:101030000F90DF91CF91FF91EF91BF91AF919F9171
:101040008F917F916F915F914F913F912F910F9071
:101050000FBE0F901F9018951F920F920FB60F9210
:1010600011242F933F934F935F936F937F938F93AD
:101070009F93AF93BF93CF93EF93FF93E0919B0523
:10108000F0919C053097A1F0C091CE006C2F848127
:1010900095810E94AE0480919B0590919C05DC0196
:1010A0001696ED91FC911797309711F06C2F0995DA
:1010B000FF91EF91CF91BF91AF919F918F917F91D0
:1010C0006F915F914F913F912F910F900FBE0F90B5
:1010D0001F9018951F920F920FB60F9211242F9305
:1010E0003F934F935F936F937F938F939F93AF93B0
:1010F000BF93EF93FF93CF93DF931F92CDB7DEB7EC
:10110000E0919B05F0919C05309799F0BE016F5FCF
:101110007F4F828193810E948D04811104C0898157
:101120008093CE000BC0E9ECF0E080818F7D80835E
:1011300005C0E9ECF0E080818F7D80830F90DF9126
:10114000CF91FF91EF91BF91AF919F918F917F913F
:101150006F915F914F913F912F910F900FBE0F9024
:101160001F9018950F931F93CF93DF93EC01042FDB
:101170001A8D4C8D41110CC088819981892B09F001
:1011800042C08A819B810E945C101B821A8242C0ED
:10119000011117C050E08C819D810E94F1112C8DAE
:1011A0008C819D81820F911D9D838C832A813B813F
:1011B0008217930750F1888199819D838C8380E009
:1011C00029C050E08E819F810E94F1118C8D90E0AA
:1011D0009195819591092E813F81280F391F3F8379
:1011E0002E83488159812417350730F42A813B81A9
:1011F000820F931F9F838E83023049F4112349F09D
:10120000115080E007C080E005C080E003C080E0AE
:1012100001C080E01F5F1A8FDF91CF911F910F9166
:101220000895FC01448D4423A9F050E026813781C4
:10123000240F351F3783268382819381281739072E
:1012400020F08081918197838683CB0166817781AD
:101250000E94F1110895EF92FF920F931F93CF9385
:101260008C010FB6F8940F92FC01C68D1C16ACF4DD
:101270008189811106C011C0F8018189811105C0E1
:101280000CC07801F1E1EF0EF11CC7010E94710F53
:1012900081110E94F60FC15079F78FEFF801868F08
:1012A0000F900FBE0FB6F8940F92C58D1C16ACF4BC
:1012B0008085811106C011C0F8018085811105C0AB
:1012C0000CC07801F8E0EF0EF11CC7010E94710F0D
:1012D00081110E94F60FC15079F78FEFF801858FC9
:1012E0000F900FBECF911F910F91FF90EF90089537
:1012F000CF93DF93EC010FB6F8940F924881598198
:101300002C8D30E07B8D729FC001739F900D112456
:10131000FA01E80FF91FFB83EA831A8E5D834C8381
:10132000821B930B840F951F9F838E838FEF8D8F6E
:101330008E8F61110CC08885882389F0CE010896B4
:101340000E94710F882359F00E94FB0508C0CE014E
:1013500008960E94CB04CE0141960E94CB040F90C8
:101360000FBE81E0DF91CF910895FF920F931F93FD
:10137000CF93DF93082F162FF42E6623C9F0869F94
:10138000C001112481960E94B306EC01009749F434
:1013900016C00B8F1C8F61E0CE010E947809F8A265
:1013A0000EC0819699838883F4CFD983C883F1CF07
:1013B00081E290E00E94B306EC01892BB1F7CE01E7
:1013C000DF91CF911F910F91FF9008959F92AF925F
:1013D000BF92CF92DF92EF92FF920F931F93CF9322
:1013E000DF9300D000D01F92CDB7DEB78C016B0128
:1013F0005D834C83A22EB12C992493947C0188E0C8
:10140000E80EF11C0FB6F8940F92F801928D838DBF
:10141000981718F0F2E0AF1219C04A2DB601C801B2
:101420000E94B208F8019189992349F0C8014196B8
:101430000E94710F882331F00E94FB0503C08111C7
:101440000E94FB050F900FBE81E050C08C819D81F2
:10145000892B21F40F900FBE80E048C0B11005C069
:10146000CE0101960E94B90FB92C0F900FBE0E94B9
:10147000490D0FB6F8940F92F801858D8F3F09F44E
:10148000158EF801868D8F3F09F4168E0F900FBED2
:10149000BE016C5F7F4FCE0101960E94C40F811187
:1014A0001FC00FB6F8940F92F801928D0F900FBEE7
:1014B000838D98130FC06C817D81C7010E945F0FDF
:1014C000C8010E942B090E940A0E81119BCF0E9425
:1014D000FB0598CFC8010E942B090E940A0E92CFEB
:1014E000C8010E942B090E940A0E80E00F900F9005
:1014F0000F900F900F90DF91CF911F910F91FF9060
:10150000EF90DF90CF90BF90AF909F900895CF93D2
:10151000DF93482F60E081E00E94B509EC0100975D
:1015200061F01B821A82198218821E8220E040E03C
:1015300050E060E070E00E94E609CE01DF91CF91BB
:101540000895EF92FF920F931F93CF93DF938A0139
:10155000FC01528D338D531710F02230F1F4422FDD
:101560007801EC011E8D0E94B2081F3F81F4898929
:101570008823A9F0CE0141960E94710F882389F03B
:10158000E114F10481F081E0F70180830DC0FF24B4
:10159000F394F10EFE8E81E007C080E005C081E08B
:1015A00003C081E001C081E0DF91CF911F910F91D5
:1015B000FF90EF9008958F929F92AF92BF92CF923B
:1015C000DF92EF92FF920F931F93CF93DF9300D0A0
:1015D00000D01F92CDB7DEB78C015B015D834C83D9
:1015E000822EE12C992493946C0181E1C80ED11CC8
:1015F0000FB6F8940F92F801F28CFF2091F1C6809B
:10160000D780B501C8010E941109811019C0FA9450
:10161000F801F28E80819181892B29F40E949C101F
:10162000F80193838283F80180858823B1F0C80193
:1016300008960E94710F882381F00E94FB050DC05F
:10164000F801D782C6828189882339F0C801419682
:101650000E94710F81110E94FB050F900FBE81E067
:1016600064C08C819D81892B21F40F900FBE80E096
:101670005CC0E11005C0CE0101960E94B90FE92CB3
:101680000F900FBE0E94490D0FB6F8940F92F8010B
:10169000858D8F3F09F4158EF801868D8F3F09F4F3
:1016A000168E0F900FBEBE016C5F7F4FCE0101966C
:1016B0000E94C40F81112BC00FB6F8940F92F8014D
:1016C000828D0F900FBE81111CC080819181892B6A
:1016D00049F40FB6F8940F92828193810E94FA0F19
:1016E0000F900FBE6C817D81C6010E945F0FC80103
:1016F0000E942B090E940A0E81117ACF0E94FB05DD
:1017000077CFC8010E942B090E940A0E71CFC80131
:101710000E942B090E940A0E0FB6F8940F92F8014E
:10172000828D0F900FBE811163CF0F900F900F909D
:101730000F900F90DF91CF911F910F91FF90EF903D
:10174000DF90CF90BF90AF909F908F900895E091E1
:10175000C005F091C1058081811107C08FEF9FEF17
:101760009093A1058093A0050895E091C005F091A4
:10177000C1050580F681E02D0680F781E02D82818C
:1017800093819093A1058093A00508950F931F93D3
:10179000CF93DF93EC010091A8051091A9058091EA
:1017A000F8059091F90502960E942F05C00FD11FF0
:1017B000E091F805F091F905D383C283C017D107F2
:1017C00068F46091F8057091F9058091BE059091DB
:1017D000BF056E5F7F4F0E94FE0417C06091F80541
:1017E0007091F9058091C0059091C1056E5F7F4FA2
:1017F0000E94FE048091A0059091A105C817D90709
:1018000020F4D093A105C093A005DF91CF911F9143
:101810000F9108954F925F926F927F928F929F9255
:10182000AF92BF92CF92DF92EF92FF920F93CF933E
:10183000DF934C016B015A012901CA010E94B306D2
:101840003C01892B09F4EAC08CE290E00E94B306C7
:10185000EC01892BB1F0788E6F8AA50165EA70E002
:10186000C3010E94FA1181E0A81AB1088F89988DEE
:10187000A80EB91ED6018C91898F8C91811105C05B
:1018800018C0C3010E94E806C9C0AE01465E5F4FA2
:10189000F6013196B8E0CB0ED11CCF012191DA01CF
:1018A0002D93AD01DC018C91882319F0EC15FD0519
:1018B000A1F718A2043008F003E00E8B0BA31CA2C2
:1018C0006E01B2E0CB0ED11CC6010E94D904CE013C
:1018D0000C960E94D904D987C88784E090E0801BC9
:1018E00091099D878C87DB8BCA8B1EA21DA21FA22C
:1018F00018A619A61AA61BA6A201B401C5010E942A
:10190000550599838883E114F10419F0F701D18317
:10191000C0830FB6F8940F928091AA058F5F8093D1
:10192000AA058091F8059091F905892BA9F5D09326
:10193000F905C093F8058091AA058130E9F584ED99
:1019400095E00E94CB048DED95E00E94CB0486EEDD
:1019500095E00E94CB048FEE95E00E94CB048BECC7
:1019600095E00E94CB0482EC95E00E94CB0485EBCD
:1019700095E00E94CB048CEA95E00E94CB048BECAE
:1019800095E09093C1058093C00582EC95E090931B
:10199000BF058093BE0510C08091A60581110CC0C3
:1019A000E091F805F091F90596898E89891720F064
:1019B000D093F905C093F8058091A2058F5F8093BD
:1019C000A20589A38E899091A705981710F480939A
:1019D000A70590E09C01220F331F220F331F220F17
:1019E000331F820F931FB6018C529A4F0E94DD0461
:1019F0000F900FBE8091A605882361F0E091F80555
:101A0000F091F90596898E89981730F40E94FB05AC
:101A100081E005C081E003C081E001C08FEFDF916C
:101A2000CF910F91FF90EF90DF90CF90BF90AF904C
:101A30009F908F907F906F905F904F900895EF925E
:101A4000FF920F930F2EFEE9EF2EF5E0FF2EF02D03
:101A500000E020E030E045E550E069E271E08DE92A
:101A60009EE00E940A0C813081F4F8948FEF9FEF82
:101A70009093A1058093A00581E08093A605109224
:101A8000A9051092A8050E94C1050F91FF90EF9043
:101A9000089580919D058F5F80939D050895CF9255
:101AA000DF92EF92FF920F931F93CF93DF9380917A
:101AB0009D05811199C0E090A805F090A9058FEFD0
:101AC000E81AF80AF092A905E092A805E114F104D9
:101AD000B9F48091C0059091C1052091BE05309167
:101AE000BF053093C1052093C0059093BF05809337
:101AF000BE058091A3058F5F8093A3050E94A70B6D
:101B00008091A0059091A105E816F90610F4D12C5A
:101B100053C0D12CCC24C394E091C005F091C105F1
:101B20008081811107C08FEF9FEF9093A105809373
:101B3000A00542C0E091C005F091C1050580F68185
:101B4000E02DC681D7818A819B81E816F90628F4A9
:101B50009093A1058093A0052FC08E010E5F1F4FAB
:101B6000C8010E942F058C899D89892B21F0CE0107
:101B70000C960E942F058E899091A705981710F456
:101B80008093A70590E09C01220F331F220F331F83
:101B9000220F331F820F931FB8018C529A4F0E945D
:101BA000DD04E091F805F091F9059E898689981782
:101BB00008F4B2CFDC2CB0CFE091F805F091F90534
:101BC000868990E0FC01EE0FFF1FEE0FFF1FEE0F66
:101BD000FF1F8E0F9F1FFC01EC52FA4F8081823055
:101BE00048F0DD24D39406C08091A5058F5F8093D3
:101BF000A505D12C8091A405882311F0DD24D39470
:101C00008D2DDF91CF911F910F91FF90EF90DF907D
:101C1000CF900895DF92EF92FF920F931F93CF938F
:101C2000DF930FB6F8940F9280919D0581508093B9
:101C30009D0580919D0581115FC08091AA0581114C
:101C400033C05DC0D7011596ED91FC911697C68102
:101C5000D781CE010C960E942F058E010E5F1F4F7B
:101C6000C8010E942F058E899091A705981710F43E
:101C70008093A70590E09C01220F331F220F331F92
:101C8000220F331F820F931FB8018C529A4F0E946C
:101C9000DD04E091F805F091F9059E898689981791
:101CA00068F0D092A4050AC0C0E0D0E00F2EF5EB9A
:101CB000EF2EF5E0FF2EF02DDD24D394F701808187
:101CC0008111C0CFCD2B11F00E94A70BC091A505AB
:101CD000CC2351F0D1E00E944F0D8111D093A40587
:101CE000C150C9F71092A5058091A405882331F051
:101CF0000E94FB0581E003C080E001C080E00F90FE
:101D00000FBEDF91CF911F910F91FF90EF90DF9069
:101D10000895CF93DF93EC01892B51F00E94490D78
:101D200060E0CE010E94C60B0E940A0E811102C023
:101D30000E94FB05DF91CF9108950CEA15E00F2E6C
:101D4000F4EDEF2EF5E0FF2EF02D29C00E94490D95
:101D5000D801CC910E940A0ECC2309F10FB6F89459
:101D60000F92D8011596ED91FC911697C681D781F7
:101D7000CE0102960E942F058091AA058150809382
:101D8000AA058091AB0581508093AB050F900FBEE3
:101D90008F89988D0E94E806CE010E94E806809106
:101DA000AB058111D3CFF7018081823010F00E9402
:101DB000FB050E94AE03F3CF009721F48091F80554
:101DC0009091F9050FB6F8940F92FC0176A365A3E4
:101DD0000F900FBE089580919D05882321F081E02A
:101DE0008093A40508951092A405E091F805F09160
:101DF000F90585A10E9484042091A705822F90E017
:101E0000FC01EE0FFF1FEE0FFF1FEE0FFF1FE80F8D
:101E1000F91FEC52FA4F3081311111C02150822F3D
:101E200090E0FC01EE0FFF1FEE0FFF1FEE0FFF1FF4
:101E3000E80FF91FEC52FA4F3081332379F3AC01EC
:101E4000440F551F440F551F440F551F480F591F6E
:101E5000DA01AC52BA4F1196ED91FC9112970280C3
:101E6000F381E02D1296FC93EE93119749525A4F4D
:101E7000E417F50729F442815381FD015283418320
:101E8000FC01EE0FFF1FEE0FFF1FEE0FFF1F8E0F67
:101E90009F1FFC01EC52FA4F0180F281E02D8681F8
:101EA00097819093F9058093F8052093A705E09119
:101EB000F805F091F90585A10E9479040895CF9362
:101EC000DF93EB016091F8057091F905645F7F4F36
:101ED0000E94FE0461E0CE010E94C60BDF91CF910B
:101EE00008950F931F93CF93DF93DC011596ED9127
:101EF000FC911697C681D7818E01045F1F4FC801E0
:101F00000E942F0580919D0581111CC00A50110966
:101F1000C8010E942F058E899091A705981710F48B
:101F20008093A70590E09C01220F331F220F331FDF
:101F3000220F331F820F931FB8018C529A4F0E94B9
:101F4000DD0405C0B80185EB95E00E94DD04E09159
:101F5000F805F091F9059E898689891720F481E0BA
:101F60008093A40501C080E0DF91CF911F910F9174
:101F700008952091A305FC0120832091A8053091AC
:101F8000A905328321830895CF93DF93FC010FB617
:101F9000F8940F922091A8053091A9058091A3058E
:101FA0009081981729F08181928128173907B0F420
:101FB000A181B281EB0148815981C9018A1B9B0B28
:101FC0008417950768F4CF01A21BB30B4A0F5B1F60
:101FD000598348830E94B90F80E003C081E001C0AB
:101FE00081E00F900FBEDF91CF91089581E0809343
:101FF000A40508950F931F93CF93DF93FC01892BC2
:1020000009F455C02689A091F805B091F9055696B6
:102010008C91281708F04BC084859585992364F02E
:10202000A091F805B091F90556963C9184E090E0B6
:10203000831B91099587848730E0C901880F991F18
:10204000880F991F880F991F280F391F2C523A4F5C
:10205000828593858217930719F58F01EF012296E8
:10206000CE010E942F05E091F805F091F9058689CF
:10207000F801868B9091A705981710F48093A70517
:1020800090E09C01220F331F220F331F220F331FBA
:10209000820F931FBE018C529A4F0E94DD0407C02D
:1020A000A091F805B091F90556968C91868BDF9139
:1020B000CF911F910F9108950F931F93CF93DF93AB
:1020C000FC01892B79F184A1815084A3268993A1F5
:1020D000291751F181112AC0EF018F010E5F1F4FA7
:1020E000C8010E942F058BA18E8B24E030E0281BB5
:1020F00031093D872C879091A705981710F480939C
:10210000A70590E09C01220F331F220F331F220FDF
:10211000331F820F931FB8018C529A4F0E94DD0427
:1021200081E005C080E003C080E001C080E0DF9175
:10213000CF911F910F9108958091F8059091F90525
:10214000892B39F0E091F805F091F90584A18F5FB2
:1021500084A38091F8059091F9050895A1E21A2EC3
:10216000AA1BBB1BFD010DC0AA1FBB1FEE1FFF1F3B
:10217000A217B307E407F50720F0A21BB30BE40B8B
:10218000F50B661F771F881F991F1A9469F76095D2
:102190007095809590959B01AC01BD01CF0108958C
:1021A0000F931F93CF93DF938230910510F482E059
:1021B00090E0E0911407F091150720E030E0A0E0F6
:1021C000B0E0309719F140815181028113814817A5
:1021D0005907C8F08417950769F4109731F01296E3
:1021E0000C93129713961C9327C000931407109317
:1021F000150722C02115310519F04217530718F4AD
:102200009A01BD01EF01DF01F801DBCF2115310596
:10221000F9F0281B390B2430310580F48A819B8129
:102220006115710521F0FB019383828304C09093B3
:10223000150780931407FE01329644C0FE01E20F99
:10224000F31F8193919322503109398328833AC037
:102250002091120730911307232B41F420910201A2
:10226000309103013093130720931207209100014E
:10227000309101012115310541F42DB73EB7409150
:10228000040150910501241B350BE0911207F091D8
:102290001307E217F307A0F42E1B3F0B281739078B
:1022A00078F0AC014E5F5F4F2417350748F04E0FB2
:1022B0005F1F50931307409312078193919302C0BD
:1022C000E0E0F0E0CF01DF91CF911F910F910895F1
:1022D000CF93DF93009709F481C0FC0132971382FA
:1022E0001282A0911407B0911507109781F42081F4
:1022F0003181820F931F2091120730911307281705
:10230000390751F5F0931307E093120767C0ED0109
:1023100020E030E0CE17DF0740F44A815B819E0168
:1023200041155105F1F0EA01F5CFD383C283408115
:102330005181840F951FC817D90759F48881998155
:10234000840F951F0296918380838A819B8193835A
:1023500082832115310529F4F0931507E0931407C2
:102360003DC0E901FB83EA8349915991C40FD51F10
:10237000EC17FD0761F480819181840F951F02960F
:10238000E90199838883828193819B838A83E0E03A
:10239000F0E012968D919C911397009719F0FD0132
:1023A000DC01F7CF8D919C9111979D012E5F3F4FDE
:1023B000820F931F209112073091130728173907B6
:1023C00069F4309729F4109215071092140702C08F
:1023D00013821282B0931307A0931207DF91CF915B
:1023E0000895FB01DC0102C001900D924150504064
:1023F000D8F70895DC0101C06D9341505040E0F7DB
:062400000895F894FFCFDF
:102406000000160720008300C200C600CE00544F0D
:1024160000436F6E6E656374696F6E004D6F76650F
:0E24260000537461727475700049444C450097
:00000001FF
