:100000000C943E000C945B000C945B000C945B0021
:100010000C945B000C945B000C945B000C945B00F4
:100020000C945B000C945B000C945B000C945B00E4
:100030000C945B000C94C2080C945B000C945B0065
:100040000C940F060C945B000C945B000C945B000A
:100050000C94B8090C94F6090C945B000C945B00AA
:100060000C945B000C945B000C945B000C945B00A4
:100070000C943E0A0C947C0A0C945B0011241FBE65
:10008000CFEFD8E0DEBFCDBF11E0A0E0B1E0E4EB00
:10009000F9E202C005900D92A635B107D9F727E025
:1000A000A6E5B1E001C01D92A034B207E1F70E94BD
:1000B000C1050C94D8140C940000CF93DF931F92C9
:1000C000CDB7DEB762E070E080E090E00E94EE1015
:1000D00010E020E04AEF50E060E070E080918501A0
:1000E000909186010E94ED0C8823C1F020E048EE3B
:1000F00053E0BE016F5F7F4F8091890190918A012B
:100100000E94ED0C182F20E040E050E060E070E02D
:1001100080918501909186010E94F80B1123C9F20C
:100120008981833761F48091650190916601009720
:1001300081F201979093660180936501CACF87375A
:1001400041F680916501909166018830910509F230
:1001500001969093660180936501BBCF61E070E0EA
:1001600080E090E00E94EE1040E061E08EE10E94AD
:10017000C70B90938A01809389010E94F80581E062
:100180000E94990C909388018093870181E00E94DE
:10019000990C9093860180938501E12CF12C03E06A
:1001A00020E030E045E550E062E171E08DE590E06F
:1001B0000E941C0E20E030E045E550E06DE171E06A
:1001C00082E593E00E941C0E01E020E030E045E56E
:1001D00050E062E271E081EA95E00E941C0E88EE38
:1001E00093E00E949B10FBCF5A9A08955D9A5D9808
:1001F0005C9A5C985A980895809582B985B183601D
:1002000085B985B193709095892385B90895CF9369
:10021000C0915601C1110EC00E94F4008091690185
:1002200090916A010E94FC000E94F60081E0809398
:10023000560114C0EC2FF0E0EE0FFF1FE759FE4F00
:10024000808191810E94FC000E94F600CF5FCE3039
:1002500018F4C093560102C010925601CF91089530
:10026000E4E2F6E04CE357E009C011921192E21784
:10027000F307D9F7F9014217530721F09F01245ED4
:100280003F4FF3CF24E030E030935E0120935D01D7
:100290002DE030E030935C0120935B0181309105CB
:1002A00099F581E090E09093AF068093AE0690932D
:1002B000AD068093AC069093AB068093AA0690930C
:1002C000A9068093A8069093A7068093A60690930C
:1002D000A5068093A4069093910680939006909330
:1002E00073068093720690936D0680936C069093CC
:1002F0008906809388069093C1068093C0069093E8
:10030000DD068093DC0645C0029709F042C081E01B
:1003100090E090939306809392069093AF0680931B
:10032000AE069093CB068093CA0690937506809391
:1003300074069093E5068093E40690937306809389
:1003400072069093E3068093E2069093E106809311
:10035000E0069093A7068093A6069093C306809329
:10036000C206909389068093880690936B068093CB
:100370006A0690938706809386069093A3068093DF
:10038000A2069093BF068093BE069093DB068093EF
:10039000DA06E4E2F6E081E090E09387828797A3B3
:1003A00086A3909367068093660690938306809356
:1003B00082069093BB068093BA069093D7068093EB
:1003C000D6069093F3068093F20690930F078093DE
:1003D0000E07918780879093B9068093B80697831C
:1003E000868397AF86AF90937F0680937E06909327
:1003F000B7068093B6069093EF068093EE0690932F
:100400000B0780930A079583848390937D068093DE
:100410007C069093B5068093B40690930907809369
:10042000080793838283978F868F93AF82AF9093D1
:100430007B0680937A069093B3068093B2069093DE
:10044000CF068093CE069093EB068093EA069093B6
:100450000707809306070895CF93DF9344E256E0A1
:1004600020E030E0C2E0D0E061E070E01FC0DF01DA
:1004700011821082009719F08D30910519F41196B0
:10048000DC93CE932115310519F02930310511F493
:100490006D937C93019632968E30910541F72F5FD4
:1004A0003F4F445E5F4F2A30310521F0FA0180E072
:1004B00090E0DDCFDF91CF9108950F931F93CF93FD
:1004C000DF936115710529F19B01772314F42F5FE8
:1004D0003F4FEB018C01B901759567950E945D0254
:1004E0009C01C0FD07C0229FC001239F900D900D6D
:1004F000112411C0029FA001039F500D129F500DA7
:100500001124429FC001439F900D529F900D1124D2
:1005100002C081E090E0DF91CF911F910F9108958B
:100520002F923F924F925F926F927F928F929F9203
:10053000AF92BF92CF92DF92EF92FF920F931F93F1
:10054000CF93DF93CDB7DEB72A970FB6F894DEBF0F
:100550000FBECDBFA0905D01B0905E0120905B0109
:1005600030905C0180916501909166019C838B8342
:10057000019698878F83E0916701F0916801FA8373
:10058000E9833196FE83ED830F2EF9E64F2EF1E0DD
:100590005F2EF02D0F2EF4E26F2EF6E07F2EF02D61
:1005A000812C912C48C009851A85F80180819181A0
:1005B0008D7F019731F0A814B90451F42E143F0433
:1005C00039F4B70182E090E00E945D02C80ED91EA6
:1005D0008114910409F441C0FDE08F16910489F45F
:1005E00031C08D819E818E159F0559F405C0EF8124
:1005F000F885EE15FF0529F483E090E0F80191837A
:1006000080839FEFE91AF90AE985FA857C96FA87D3
:10061000E987FAE0EF16F10431F6F201C192D192C6
:100620002F01FFEF8F1A9F0A82E0680E711C9EE077
:1006300089169104F1F07A866986E12CF12CC12C9F
:10064000D12CB1CF82E090E0F801918380838B813F
:100650009C818E159F0559F6CFCF82E090E0F8017E
:100660009183808389819A818E159F0509F0B9CF86
:10067000C3CF2A960FB6F894DEBF0FBECDBFDF9171
:10068000CF911F910F91FF90EF90DF90CF90BF908F
:10069000AF909F908F907F906F905F904F903F9022
:1006A0002F90089561E070E080E090E00E94EE10ED
:1006B0006894EE24E2F8F12C05E610E06894AA2490
:1006C000A3F8B12C0F2EF7E08F2E912CF02D0F2ECA
:1006D000F6E06F2E712CF02D0F2EF5E04F2E512CE1
:1006E000F02DCC24CA94DC2CC1E0D0E088EE93E05D
:1006F0000E949B100E942C02F0926801E092670118
:10070000F0926601E092650110926401109263011B
:100710000E947714B8010E94C012C2972CF49092E4
:100720005E0180925D0104C0B0925E01A0925D0105
:100730000E947714B8010E94C012C2972CF4509204
:100740005C0140925B0104C070925C0160925B01AD
:100750000E947714B8010E94C012C2972CF4D09363
:100760005A01C093590104C0D0925A01C092590154
:100770000E947714B8010E94C012C2972CF4D09343
:100780005801C093570104C0D0925801C09257013C
:100790008091630190916401892B09F0A7CF80912A
:1007A0005F019091600105970CF44CC020E04AEF86
:1007B00050E060E070E080918701909188010E9494
:1007C000ED0C882371F120E04AEF50E060E070E02A
:1007D00080918501909186010E94ED0C882381F023
:1007E0006CE08AE291E00E94380620E040E050E0B0
:1007F00060E070E080918501909186010E94F80B85
:1008000082E090E00E9430010E94900220E040E0EF
:1008100050E060E070E080918701909188010E9433
:10082000F80B88E893E10E949B10109262011092ED
:1008300061011092600110925F01D0936401C09336
:10084000630151C0809161019091620105970CF4A0
:100850004AC020E04AEF50E060E070E080918701FC
:10086000909188010E94ED0C882369F120E04AEF05
:1008700050E060E070E080918501909186010E94D7
:10088000ED0C882381F06CE087E391E00E9438064C
:1008900020E040E050E060E070E0809185019091C0
:1008A00086010E94F80BCE010E9430010E94900246
:1008B00020E040E050E060E070E08091870190919E
:1008C00088010E94F80B88E893E10E949B10109227
:1008D0006201109261011092600110925F01D09349
:1008E0006401C093630186B1837C90E020910A018A
:1008F00030910B018217930771F4209167013091B9
:1009000068012115310509F413C1215031093093D3
:1009100068012093670120910C0130910D0182172D
:10092000930769F4209167013091680128303105FF
:1009300031F02F5F3F4F3093680120936701209182
:1009400057013091580180915B0190915C01820FB9
:10095000931F009789F460915D0170915E01409151
:10096000590150915A01460F571F41155105B9F0D1
:100970004E30510539F513C08A30910519F5609153
:100980005D0170915E014091590150915A01460FED
:10099000571F4115510519F04E30510599F4319505
:1009A00021953109309358012093570180915901C5
:1009B00090915A0191958195910990935A01809354
:1009C00059018EC040915D0150915E0160915901C5
:1009D00070915A01880F991FFC01EE0FFF1FEE0F57
:1009E000FF1FEE0FFF1FE81BF90BCA01860F971FB1
:1009F000E80FF91FEE0FFF1FEC5DF94F8081918129
:100A00008130910541F43195219531093093580198
:100A10002093570165C04115510521F04D30510516
:100A200009F055C06F3F7F4F39F580915F0190917C
:100A3000600101969093600180935F0120E04AEF8E
:100A400050E060E070E080918501909186010E9405
:100A5000ED0C8823B9F16CE084E491E00E94380643
:100A600020E040E050E060E070E0809185019091EE
:100A700086010E94F80B26C080916101909162016D
:100A80000196909362018093610120E04AEF50E06B
:100A900060E070E080918501909186010E94ED0CEC
:100AA000882381F06CE086E491E00E94380620E023
:100AB00040E050E060E070E0809185019091860117
:100AC0000E94F80BD0936401C093630109C003979F
:100AD00039F471956195710970935A0160935901C8
:100AE00020915D0130915E018091590190915A01F0
:100AF000820F931F90935E0180935D0120915B01B3
:100B000030915C018091570190915801820F931FA1
:100B100090935C0180935B0188EC90E00E949B10B5
:100B20008091630190916401892B09F438CEDECD68
:100B300040910C0150910D018417950709F0FFCEEB
:100B4000F8CE20E04AEF50E060E070E0809187014D
:100B5000909188010E94ED0C882399F30E949002E5
:100B600084E690E00E949B1020E040E050E060E0CE
:100B700070E080918701909188010E94F80BE1CF8D
:100B800008950E9441065E98E12CF12C00E020E0DF
:100B900030E045E550E068E471E08EEA90E00E94C4
:100BA0001C0E87E091E00E94FD0578940E94310FB1
:100BB000FFCFCF93DF9300D0CDB7DEB76A838091AC
:100BC000D3019091D401009771F0198220E0AE0119
:100BD0004F5F5F4FBE016E5F7F4F0E94B30C8981F4
:100BE00081110E940D080F900F90DF91CF91089511
:100BF0009093D4018093D30108959093D201809370
:100C0000D1018AE087BD84B5826084BDEEE6F0E064
:100C100080818260808385B5856085BD08951F923F
:100C20000F920FB60F9211242F933F934F935F9320
:100C30006F937F938F939F93AF93BF93EF93FF93A4
:100C4000E091D101F091D201309709F00995FF911F
:100C5000EF91BF91AF919F918F917F916F915F9134
:100C60004F913F912F910F900FBE0F901F901895AD
:100C7000462FBC018091D5019091D6010E94750943
:100C800008958F929F92AF92BF92CF92DF92EF9290
:100C90000F938EEA91E00E949A068BE891E00E9401
:100CA0009A060F2EF9ED8F2EF5E09F2EF02D0F2EC8
:100CB000FBE8AF2EF1E0BF2EF02D0F2EFEEACF2E77
:100CC000F1E0DF2EF02DE12C00E023E040E052ECDB
:100CD00061E070E080E00E94FB089093D601809371
:100CE000D50188B1836C88B95B9A8AB184678AB967
:100CF0005E9A81B18FEF81B984B1836084B984B188
:100D00008C6384B90F91EF90DF90CF90BF90AF903C
:100D10009F908F90089595B1937C95B925B134E05B
:100D2000839FC0011124822B85B9089585B1837CEE
:100D300085B90895FC0110A211A212A20895FC0128
:100D400082A18823D9F081A1DF01A80FB11D8C9168
:100D5000DB018C9321A130E02F5F3F4F2F71307862
:100D6000332334F421503109206E3F6F2F5F3F4F02
:100D700021A382A1815082A380E0089581E008959B
:100D8000FC0142A14032B8F420A130E0E20FF31F91
:100D900060832F5F3F4F2F713078332334F421501D
:100DA0003109206E3F6F2F5F3F4FFC0120A34F5F43
:100DB00042A380E0089582E00895FC0103969283A7
:100DC00081832FEF3FEF348323839683858390873E
:100DD000878310820895FC01118610860895CF93B1
:100DE000DF939C01FB01DC011196CD91DC91129700
:100DF000D383C2838C819D81958384838C819D81E3
:100E0000DC0113967C936E9312977D836C833187FC
:100E10002087F90180818F5F8083DF91CF910895D2
:100E2000CF93DF93EB01488159814F3F2FEF52075A
:100E300021F4FC01A781B0850DC0DC01139601C02F
:100E4000DF011296ED91FC911397208131814217B9
:100E50005307B0F71296ED91FC911397FB83EA8349
:100E6000D583C483BD83AC831396DC93CE93129752
:100E700099878887FC0120812F5F2083DF91CF91A4
:100E80000895CF93DF93FC01A085B185C281D38102
:100E9000848195819D838C83C481D5818281938156
:100EA0009B838A8311968D919C911297E817F9077D
:100EB00031F48481958112969C938E9311971186BB
:100EC00010868C9181508C93DF91CF91089531E100
:100ED000FC013083319722E220833197A3E3A08382
:100EE000319760833197708331971082319760E832
:100EF000608331971082319762E06083319763E0BD
:100F00006083319764E06083319765E06083319757
:100F100066E06083319767E06083319768E06083C3
:100F2000319769E06083319760E160833197308366
:100F3000319732E13083319733E13083319734E1B7
:100F40003083319735E13083319736E13083319703
:100F500037E13083319738E13083319739E130839D
:100F6000319730E23083319731E2308331972083FB
:100F7000319723E220833197408331975083319713
:100F800026E22083319727E22083319728E22083CD
:100F9000319729E22083319720E32083319721E3A1
:100FA0002083869708951092890085EE80938800AB
:100FB0008BE080938100EFE6F0E0808182608083A7
:100FC000A0912206B0912306CD91CDBFDD91DEBF69
:100FD000FF91EF91DF91CF91BF91AF919F918F9151
:100FE0007F916F915F914F913F912F911F910F9141
:100FF000FF90EF90DF90CF90BF90AF909F908F9039
:101000007F906F905F904F903F902F901F900F9028
:101010000FBE0F90089581E008950F920FB6F894D7
:101020000F921F9211242F923F924F925F926F92D4
:101030007F928F929F92AF92BF92CF92DF92EF9268
:10104000FF920F931F932F933F934F935F936F9351
:101050007F938F939F93AF93BF93CF93DF93EF9340
:10106000FF93A0912206B09123060DB60D920EB605
:101070000D920E94FD10A0912206B0912306CD9101
:10108000CDBFDD91DEBFFF91EF91DF91CF91BF9199
:10109000AF919F918F917F916F915F914F913F9110
:1010A0002F911F910F91FF90EF90DF90CF90BF9005
:1010B000AF909F908F907F906F905F904F903F90F8
:1010C0002F901F900F900FBE0F9008950F920FB6A4
:1010D000F8940F921F9211242F923F924F925F9299
:1010E0006F927F928F929F92AF92BF92CF92DF9238
:1010F000EF92FF920F931F932F933F934F935F9322
:101100006F937F938F939F93AF93BF93CF93DF930F
:10111000EF93FF93A0912206B09123060DB60D9296
:101120000EB60D920E94610F81110E94FD10A091D8
:101130002206B0912306CD91CDBFDD91DEBFFF9198
:10114000EF91DF91CF91BF91AF919F918F917F915F
:101150006F915F914F913F912F911F910F91FF9050
:10116000EF90DF90CF90BF90AF909F908F907F9047
:101170006F905F904F903F902F901F900F900FBEF9
:101180000F9008950E9466081895CF93DF93EC01A5
:101190000E945B0F8091D7019091D801892B31F487
:1011A0008CED91E09093D8018093D7012091D901E3
:1011B0003091DA01C9018C0F9D1F873E43E09407EF
:1011C00070F42817390770F4C091D701D091D80175
:1011D000C20FD31F9093DA018093D90105C0C0E0FC
:1011E000D0E002C0C0E0D0E00E941C10CE01DF9130
:1011F000CF91089508954F925F926F927F928F9250
:101200009F92AF92BF92CF92DF92FF920F931F9364
:10121000CF93DF93CDB7DEB7F82E2A013B0188E0EC
:1012200090E00E940A138C018F2D90E0880F991F87
:10123000FC01ED53FA4F11830083FC01E25FFE4F86
:1012400080819181D80111969C938E931396BC92C4
:10125000AE9212971596DC92CE92149717969C92A6
:101260008E921697FFB6F894ED91FC9111973697F0
:10127000808182608083CD90DC90D301C201880F91
:10128000991FAA1FBB1F880F991FAA1FBB1F9C0174
:10129000AD01220F331F441F551F60E070E081EE47
:1012A00090E00E94D4122150F60132972083D80199
:1012B000ED91FC911197359788E98083ED91FC9130
:1012C000349786E08083FFBEC801DF91CF911F91E4
:1012D0000F91FF90DF90CF90BF90AF909F908F9035
:1012E0007F906F905F904F900895EF92FF920F93D1
:1012F0001F93CF93DF93FC01A281B381109779F004
:10130000E42FF0E092965C9120E230E0251B310959
:101310002E173F071CF17C01411104C016C042305A
:10132000F8F4F9CFEB014150042F10E00F5F1F4F8D
:10133000060F171F6991D70112968D919C911397F3
:101340000E94C006C017D107A9F7D701ED91FC9103
:10135000359780818062808380E003C082E001C095
:1013600082E0DF91CF911F910F91FF90EF90089550
:101370001F920F920FB60F9211242F933F934F930A
:101380005F936F937F938F939F93AF93BF93CF930D
:10139000EF93FF93E091C305F091C4053097A1F05E
:1013A000C091C6006C2F848195810E94C0068091F7
:1013B000C3059091C405DC011696ED91FC91179739
:1013C000309711F06C2F0995FF91EF91CF91BF915C
:1013D000AF919F918F917F916F915F914F913F91CD
:1013E0002F910F900FBE0F901F9018951F920F9284
:1013F0000FB60F9211242F933F934F935F936F93E8
:101400007F938F939F93AF93BF93EF93FF93CF936C
:10141000DF931F92CDB7DEB7E091C305F091C4050D
:10142000309799F0BE016F5F7F4F828193810E9458
:101430009F06811104C089818093C6000BC0E1EC36
:10144000F0E080818F7D808305C0E1ECF0E0808159
:101450008F7D80830F90DF91CF91FF91EF91BF91AE
:10146000AF919F918F917F916F915F914F913F913C
:101470002F910F900FBE0F901F9018951F920F92F3
:101480000FB60F9211242F933F934F935F936F9357
:101490007F938F939F93AF93BF93CF93EF93FF93DC
:1014A000E091C505F091C6053097A1F0C091CE003E
:1014B0006C2F848195810E94C0068091C505909112
:1014C000C605DC011696ED91FC911797309711F047
:1014D0006C2F0995FF91EF91CF91BF91AF919F91A3
:1014E0008F917F916F915F914F913F912F910F90CD
:1014F0000FBE0F901F9018951F920F920FB60F926C
:1015000011242F933F934F935F936F937F938F9308
:101510009F93AF93BF93EF93FF93CF93DF931F926C
:10152000CDB7DEB7E091C505F091C605309799F0CB
:10153000BE016F5F7F4F828193810E949F06811160
:1015400004C089818093CE000BC0E9ECF0E080817B
:101550008F7D808305C0E9ECF0E080818F7D808302
:101560000F90DF91CF91FF91EF91BF91AF919F913C
:101570008F917F916F915F914F913F912F910F903C
:101580000FBE0F901F9018950F931F93CF93DF936B
:10159000EC01042F1A8D4C8D41110CC0888199816A
:1015A000892B09F042C08A819B810E946E121B82A6
:1015B0001A8242C0011117C050E08C819D810E94A7
:1015C00087142C8D8C819D81820F911D9D838C832E
:1015D0002A813B818217930750F1888199819D83ED
:1015E0008C8380E029C050E08E819F810E94871407
:1015F0008C8D90E09195819591092E813F81280FE6
:10160000391F3F832E83488159812417350730F4D1
:101610002A813B81820F931F9F838E83023049F47E
:10162000112349F0115080E007C080E005C080E040
:1016300003C080E001C080E01F5F1A8FDF91CF916F
:101640001F910F910895FC01448D4423A9F050E0AF
:1016500026813781240F351F37832683828193812A
:101660002817390720F08081918197838683CB01E9
:10167000668177810E9487140895EF92FF920F93FD
:101680001F93CF938C010FB6F8940F92FC01C68D77
:101690001C16ACF48189811106C011C0F801818942
:1016A000811105C00CC07801F1E1EF0EF11CC701FA
:1016B0000E94831181110E940812C15079F78FEFA7
:1016C000F801868F0F900FBE0FB6F8940F92C58D5C
:1016D0001C16ACF48085811106C011C0F80180850C
:1016E000811105C00CC07801F8E0EF0EF11CC701B4
:1016F0000E94831181110E940812C15079F78FEF67
:10170000F801858F0F900FBECF911F910F91FF9021
:10171000EF900895CF93DF93EC010FB6F8940F92FA
:10172000488159812C8D30E07B8D729FC001739F61
:10173000900D1124FA01E80FF91FFB83EA831A8E3A
:101740005D834C83821B930B840F951F9F838E8335
:101750008FEF8D8F8E8F61110CC08885882389F063
:10176000CE0108960E948311882359F00E940D082B
:1017700008C0CE0108960E94DD06CE0141960E9467
:10178000DD060F900FBE81E0DF91CF910895FF92AB
:101790000F931F93CF93DF93082F162FF42E6623FA
:1017A000C9F0869FC001112481960E94C508EC01F2
:1017B000009749F416C00B8F1C8F61E0CE010E9488
:1017C0008A0BF8A20EC0819699838883F4CFD983BF
:1017D000C883F1CF81E290E00E94C508EC01892B1B
:1017E000B1F7CE01DF91CF911F910F91FF90089536
:1017F0009F92AF92BF92CF92DF92EF92FF920F93A0
:101800001F93CF93DF9300D000D01F92CDB7DEB7E8
:101810008C016B015D834C83A22EB12C992493948F
:101820007C0188E0E80EF11C0FB6F8940F92F801E5
:10183000928D838D981718F0F2E0AF1219C04A2DDF
:10184000B601C8010E94C40AF8019189992349F0A0
:10185000C80141960E948311882331F00E940D082F
:1018600003C081110E940D080F900FBE81E050C08F
:101870008C819D81892B21F40F900FBE80E048C0A0
:10188000B11005C0CE0101960E94CB11B92C0F906A
:101890000FBE0E945B0F0FB6F8940F92F801858D72
:1018A0008F3F09F4158EF801868D8F3F09F4168E4F
:1018B0000F900FBEBE016C5F7F4FCE0101960E945C
:1018C000D61181111FC00FB6F8940F92F801928DB6
:1018D0000F900FBE838D98130FC06C817D81C7015F
:1018E0000E947111C8010E943D0B0E941C108111C1
:1018F0009BCF0E940D0898CFC8010E943D0B0E940B
:101900001C1092CFC8010E943D0B0E941C1080E069
:101910000F900F900F900F900F90DF91CF911F912C
:101920000F91FF90EF90DF90CF90BF90AF909F907E
:101930000895CF93DF93482F60E081E00E94C70BAA
:10194000EC01009761F01B821A82198218821E82B4
:1019500020E040E050E060E070E00E94F80BCE0133
:10196000DF91CF910895EF92FF920F931F93CF9342
:10197000DF938A01FC01528D338D531710F0223012
:10198000F1F4422F7801EC011E8D0E94C40A1F3F22
:1019900081F489898823A9F0CE0141960E948311A0
:1019A000882389F0E114F10481F081E0F70180835C
:1019B0000DC0FF24F394F10EFE8E81E007C080E09D
:1019C00005C081E003C081E001C081E0DF91CF91DB
:1019D0001F910F91FF90EF9008958F929F92AF9279
:1019E000BF92CF92DF92EF92FF920F931F93CF930C
:1019F000DF9300D000D01F92CDB7DEB78C015B0122
:101A00005D834C83822EE12C992493946C0181E1B7
:101A1000C80ED11C0FB6F8940F92F801F28CFF207B
:101A200091F1C680D780B501C8010E94230B8110B7
:101A300019C0FA94F801F28E80819181892B29F4E2
:101A40000E94AE12F80193838283F8018085882377
:101A5000B1F0C80108960E948311882381F00E948A
:101A60000D080DC0F801D782C6828189882339F01C
:101A7000C80141960E94831181110E940D080F90A8
:101A80000FBE81E064C08C819D81892B21F40F9071
:101A90000FBE80E05CC0E11005C0CE0101960E943F
:101AA000CB11E92C0F900FBE0E945B0F0FB6F8947C
:101AB0000F92F801858D8F3F09F4158EF801868D00
:101AC0008F3F09F4168E0F900FBEBE016C5F7F4FE3
:101AD000CE0101960E94D61181112BC00FB6F89449
:101AE0000F92F801828D0F900FBE81111CC0808172
:101AF0009181892B49F40FB6F8940F9282819381DA
:101B00000E940C120F900FBE6C817D81C6010E9455
:101B10007111C8010E943D0B0E941C1081117ACFE7
:101B20000E940D0877CFC8010E943D0B0E941C1037
:101B300071CFC8010E943D0B0E941C100FB6F89493
:101B40000F92F801828D0F900FBE811163CF0F901D
:101B50000F900F900F900F90DF91CF911F910F91E9
:101B6000FF90EF90DF90CF90BF90AF909F908F90BD
:101B70000895E091EA05F091EB058081811107C09D
:101B80008FEF9FEF9093CB058093CA050895E09166
:101B9000EA05F091EB050580F681E02D0680F781DE
:101BA000E02D828193819093CB058093CA0508959F
:101BB0000F931F93CF93DF93EC010091D205109107
:101BC000D305809122069091230602960E94410738
:101BD000C00FD11FE0912206F0912306D383C28368
:101BE000C017D10768F46091220670912306809196
:101BF000E8059091E9056E5F7F4F0E94100717C0BE
:101C000060912206709123068091EA059091EB0580
:101C10006E5F7F4F0E9410078091CA059091CB059F
:101C2000C817D90720F4D093CB05C093CA05DF911C
:101C3000CF911F910F9108954F925F926F927F9273
:101C40008F929F92AF92BF92CF92DF92EF92FF92CC
:101C50000F93CF93DF934C016B015A012901CA0105
:101C60000E94C5083C01892B09F4EAC08CE290E08F
:101C70000E94C508EC01892BB1F0788E6F8AA5010E
:101C800065EA70E0C3010E94901481E0A81AB108CF
:101C90008F89988DA80EB91ED6018C91898F8C9151
:101CA000811105C018C0C3010E94FA08C9C0AE0165
:101CB000465E5F4FF6013196B8E0CB0ED11CCF01E6
:101CC0002191DA012D93AD01DC018C91882319F06B
:101CD000EC15FD05A1F718A2043008F003E00E8B07
:101CE0000BA31CA26E01B2E0CB0ED11CC6010E9458
:101CF000EB06CE010C960E94EB06D987C88784E0DC
:101D000090E0801B91099D878C87DB8BCA8B1EA27C
:101D10001DA21FA218A619A61AA61BA6A201B401ED
:101D2000C5010E94670799838883E114F10419F0C3
:101D3000F701D183C0830FB6F8940F928091D40538
:101D40008F5F8093D4058091220690912306892B82
:101D5000A9F5D0932306C09322068091D405813043
:101D6000E9F58EEF95E00E94DD0687E096E00E949F
:101D7000DD0680E196E00E94DD0689E196E00E94A2
:101D8000DD0685EF95E00E94DD068CEE95E00E9471
:101D9000DD068FED95E00E94DD0686ED95E00E9460
:101DA000DD0685EF95E09093EB058093EA058CEED8
:101DB00095E09093E9058093E80510C08091D005E7
:101DC00081110CC0E0912206F091230696898E893C
:101DD000891720F0D0932306C09322068091CC056A
:101DE0008F5F8093CC0589A38E899091D105981738
:101DF00010F48093D10590E09C01220F331F220F35
:101E0000331F220F331F820F931FB60182509A4F48
:101E10000E94EF060F900FBE8091D005882361F0DD
:101E2000E0912206F091230696898E89981730F466
:101E30000E940D0881E005C081E003C081E001C07F
:101E40008FEFDF91CF910F91FF90EF90DF90CF90C8
:101E5000BF90AF909F908F907F906F905F904F90CA
:101E60000895EF92FF920F930F2EF8ECEF2EF5E00E
:101E7000FF2EF02D00E020E030E045E550E060E589
:101E800071E08FEA90E10E941C0E813081F4F89499
:101E90008FEF9FEF9093CB058093CA0581E08093ED
:101EA000D0051092D3051092D2050E94D3070F914E
:101EB000FF90EF9008958091C7058F5F8093C705CD
:101EC0000895CF92DF92EF92FF920F931F93CF93DB
:101ED000DF938091C705811199C0E090D205F09001
:101EE000D3058FEFE81AF80AF092D305E092D205F5
:101EF000E114F104B9F48091EA059091EB05209189
:101F0000E8053091E9053093EB052093EA059093BD
:101F1000E9058093E8058091CD058F5F8093CD051D
:101F20000E94B90D8091CA059091CB05E816F9067B
:101F300010F4D12C53C0D12CCC24C394E091EA05E9
:101F4000F091EB058081811107C08FEF9FEF909397
:101F5000CB058093CA0542C0E091EA05F091EB05FC
:101F60000580F681E02DC681D7818A819B81E816A4
:101F7000F90628F49093CB058093CA052FC08E01F3
:101F80000E5F1F4FC8010E9441078C899D89892BD4
:101F900021F0CE010C960E9441078E899091D105C7
:101FA000981710F48093D10590E09C01220F331F05
:101FB000220F331F220F331F820F931FB80182504D
:101FC0009A4F0E94EF06E0912206F09123069E8927
:101FD0008689981708F4B2CFDC2CB0CFE0912206A6
:101FE000F0912306868990E0FC01EE0FFF1FEE0FB3
:101FF000FF1FEE0FFF1F8E0F9F1FFC01E250FA4FD5
:102000008081823048F0DD24D39406C08091CF05D2
:102010008F5F8093CF05D12C8091CE05882311F05E
:10202000DD24D3948D2DDF91CF911F910F91FF90DF
:10203000EF90DF90CF900895DF92EF92FF920F9391
:102040001F93CF93DF930FB6F8940F928091C7053B
:1020500081508093C7058091C70581115FC0809131
:10206000D405811133C05DC0D7011596ED91FC9167
:102070001697C681D781CE010C960E9441078E012A
:102080000E5F1F4FC8010E9441078E899091D105B4
:10209000981710F48093D10590E09C01220F331F14
:1020A000220F331F220F331F820F931FB80182505C
:1020B0009A4F0E94EF06E0912206F09123069E8936
:1020C0008689981768F0D092CE050AC0C0E0D0E0AB
:1020D0000F2EFFEDEF2EF5E0FF2EF02DDD24D39433
:1020E000F70180818111C0CFCD2B11F00E94B90D75
:1020F000C091CF05CC2351F0D1E00E94610F811136
:10210000D093CE05C150C9F71092CF058091CE056E
:10211000882331F00E940D0881E003C080E001C0F7
:1021200080E00F900FBEDF91CF911F910F91FF9034
:10213000EF90DF900895CF93DF93EC01892B51F05E
:102140000E945B0F60E0CE010E94D80D0E941C101F
:10215000811102C00E940D08DF91CF91089506ED14
:1021600015E00F2EFEEFEF2EF5E0FF2EF02D29C02B
:102170000E945B0FD801CC910E941C10CC2309F166
:102180000FB6F8940F92D8011596ED91FC91169721
:10219000C681D781CE0102960E9441078091D40565
:1021A00081508093D4058091D50581508093D505C9
:1021B0000F900FBE8F89988D0E94FA08CE010E9461
:1021C000FA088091D5058111D3CFF7018081823043
:1021D00010F00E940D080E94C005F3CF009721F473
:1021E00080912206909123060FB6F8940F92FC017D
:1021F00076A365A30F900FBE08958091C70588232D
:1022000021F081E08093CE0508951092CE05E091F3
:102210002206F091230685A10E9496062091D10501
:10222000822F90E0FC01EE0FFF1FEE0FFF1FEE0F5D
:10223000FF1FE80FF91FE250FA4F3081311111C032
:102240002150822F90E0FC01EE0FFF1FEE0FFF1FC9
:10225000EE0FFF1FE80FF91FE250FA4F30813323D2
:1022600079F3AC01440F551F440F551F440F551F00
:10227000480F591FDA01A250BA4F1196ED91FC9107
:1022800012970280F381E02D1296FC93EE93119742
:102290004F5F594FE417F50729F442815381FD013F
:1022A00052834183FC01EE0FFF1FEE0FFF1FEE0F65
:1022B000FF1F8E0F9F1FFC01E250FA4F0180F28139
:1022C000E02D8681978190932306809322062093A8
:1022D000D105E0912206F091230685A10E948B068C
:1022E0000895CF93DF93EB0160912206709123064E
:1022F000645F7F4F0E94100761E0CE010E94D80DFD
:10230000DF91CF9108950F931F93CF93DF93DC015B
:102310001596ED91FC911697C681D7818E01045FC9
:102320001F4FC8010E9441078091C70581111CC041
:102330000A501109C8010E9441078E899091D10568
:10234000981710F48093D10590E09C01220F331F61
:10235000220F331F220F331F820F931FB8018250A9
:102360009A4F0E94EF0605C0B8018FED95E00E94DC
:10237000EF06E0912206F09123069E89868989174F
:1023800020F481E08093CE0501C080E0DF91CF9101
:102390001F910F9108952091CD05FC01208320917C
:1023A000D2053091D305328321830895CF93DF93F3
:1023B000FC010FB6F8940F922091D2053091D3050D
:1023C0008091CD059081981729F0818192812817FD
:1023D0003907B0F4A181B281EB0148815981C9016B
:1023E0008A1B9B0B8417950768F4CF01A21BB30BC4
:1023F0004A0F5B1F598348830E94CB1180E003C0C2
:1024000081E001C081E00F900FBEDF91CF91089570
:1024100081E08093CE0508950F931F93CF93DF93B0
:10242000FC01892B09F455C02689A0912206B091A0
:10243000230656968C91281708F04BC08485958505
:10244000992364F0A0912206B091230656963C9100
:1024500084E090E0831B91099587848730E0C9016F
:10246000880F991F880F991F880F991F280F391FF0
:1024700022503A4F828593858217930719F58F0171
:10248000EF012296CE010E944107E0912206F091D1
:1024900023068689F801868B9091D105981710F450
:1024A0008093D10590E09C01220F331F220F331F30
:1024B000220F331F820F931FBE0182509A4F0E943A
:1024C000EF0607C0A0912206B091230656968C9184
:1024D000868BDF91CF911F910F9108950F931F93DA
:1024E000CF93DF93FC01892B79F184A1815084A3E0
:1024F000268993A1291751F181112AC0EF018F017B
:102500000E5F1F4FC8010E9441078BA18E8B24E0F4
:1025100030E0281B31093D872C879091D105981711
:1025200010F48093D10590E09C01220F331F220FFD
:10253000331F220F331F820F931FB80182509A4F0F
:102540000E94EF0681E005C080E003C080E001C08A
:1025500080E0DF91CF911F910F9108958091220625
:1025600090912306892B39F0E0912206F091230601
:1025700084A18F5F84A38091220690912306089501
:1025800097FB072E16F4009407D077FD09D00E9420
:10259000F61207FC05D03EF4909581959F4F089563
:1025A000709561957F4F0895A1E21A2EAA1BBB1B5F
:1025B000FD010DC0AA1FBB1FEE1FFF1FA217B3070F
:1025C000E407F50720F0A21BB30BE40BF50B661F25
:1025D000771F881F991F1A9469F7609570958095E9
:1025E00090959B01AC01BD01CF010895AA1BBB1BB7
:1025F00051E107C0AA1FBB1FA617B70710F0A61B03
:10260000B70B881F991F5A95A9F780959095BC0123
:10261000CD0108950F931F93CF93DF9382309105DF
:1026200010F482E090E0E0913E07F0913F0720E057
:1026300030E0A0E0B0E0309719F140815181028193
:10264000138148175907C8F08417950769F4109744
:1026500031F012960C93129713961C9327C0009397
:102660003E0710933F0722C02115310519F042178C
:10267000530718F49A01BD01EF01DF01F801DBCF28
:1026800021153105F9F0281B390B2430310580F470
:102690008A819B816115710521F0FB0193838283FF
:1026A00004C090933F0780933E07FE01329644C0DA
:1026B000FE01E20FF31F8193919322503109398378
:1026C00028833AC020913C0730913D07232B41F4E9
:1026D000209102013091030130933D0720933C0784
:1026E00020910001309101012115310541F42DB7F0
:1026F0003EB74091040150910501241B350BE09138
:102700003C07F0913D07E217F307A0F42E1B3F0BA7
:102710002817390778F0AC014E5F5F4F2417350753
:1027200048F04E0F5F1F50933D0740933C07819345
:10273000919302C0E0E0F0E0CF01DF91CF911F91D3
:102740000F910895CF93DF93009709F481C0FC01A6
:10275000329713821282A0913E07B0913F071097E3
:1027600081F420813181820F931F20913C073091A9
:102770003D072817390751F5F0933D07E0933C07D3
:1027800067C0ED0120E030E0CE17DF0740F44A815A
:102790005B819E0141155105F1F0EA01F5CFD3832C
:1027A000C28340815181840F951FC817D90759F4FE
:1027B00088819981840F951F0296918380838A81F5
:1027C0009B81938382832115310529F4F0933F0780
:1027D000E0933E073DC0E901FB83EA8349915991AB
:1027E000C40FD51FEC17FD0761F480819181840F20
:1027F000951F0296E90199838883828193819B8347
:102800008A83E0E0F0E012968D919C9113970097F7
:1028100019F0FD01DC01F7CF8D919C9111979D017D
:102820002E5F3F4F820F931F20913C0730913D0751
:102830002817390769F4309729F410923F0710924E
:102840003E0702C013821282B0933D07A0933C075B
:10285000DF91CF9108958F929F92AF92BF92CF92C6
:10286000DF92EF92FF92CF93DF93EC016881798141
:102870008A819B81611571058105910521F464E2CE
:1028800079ED8BE597E02DE133EF41E050E00E94D8
:10289000971449015A019B01AC01A7EAB1E40E94D7
:1028A000B6146B017C01ACEEB4EFA50194010E945B
:1028B000C414DC01CB018C0D9D1DAE1DBF1DB7FFE7
:1028C00003C00197A109B04888839983AA83BB8379
:1028D0009F77DF91CF91FF90EF90DF90CF90BF90E7
:1028E000AF909F908F9008950E942B14089586E0DA
:1028F00091E00E942B140895A0E0B0E080930601BF
:1029000090930701A0930801B09309010895FB017A
:10291000DC0102C001900D9241505040D8F708955B
:10292000DC0101C06D9341505040E0F70895052E41
:1029300097FB1EF400940E94AE1457FD07D00E942E
:10294000D41207FC03D04EF40C94AE14509540956D
:10295000309521953F4F4F4F5F4F0895909580954B
:10296000709561957F4F8F4F9F4F08950E94C914B6
:10297000A59F900DB49F900DA49F800D911D1124D3
:102980000895B7FF0C94B6140E94B614821B930BE3
:102990000895A29FB001B39FC001A39F700D811D38
:1029A0001124911DB29F700D811D1124911D089558
:0429B000F894FFCFC9
:1029B400000040072000010000008300C200C600A0
:1029C400CE00436F6E6E656374696F6E004D6F76F3
:1029D40065005265667265736800504C41594552F2
:1029E400322057494E5300504C41594552312057DB
:1029F400494E530032003100537461727475700093
:062A040049444C450000AE
:00000001FF
